:020000040800F2
:10800000286500204581000869E80008A9D4000817
:108010000000000000000000000000000000000060
:1080200000000000000000000000000021F3000834
:108030000000000000000000038100087DFA000835
:1080400057810008000000002DEC0008578100084F
:1080500057810008899C0008999C0008A39C00088F
:1080600000000000D99B0008E99B00085781000828
:10807000B1950008C5FB000857810008000000000A
:1080800057810008D5FB00080DFC00085781000847
:108090005781000857810008578100085781000860
:1080A0005781000857810008578100085781000850
:1080B0006D0201087D0201080348854601F04CF875
:1080C00000480047A10F010828650020084B1968E7
:1080D0000868203080F30988022080F31488BFF3F9
:1080E0006F8F3FBCAE4608BC04BC62B618470000A8
:1080F000A8020020EFF3108072B6704780F310885A
:108100007047EFF309800E4B1A6820381060F0C0FA
:1081100044464D4656465F46F0C008B572B609F073
:10812000CBFD62B60CBC116808681030F0C8A046E0
:10813000A946B246BB4680F309882038F0C81847E4
:10814000A80200200448804704480047FEE7FEE7F5
:10815000FEE7FEE7FEE7FEE751FB0008B9800008F6
:1081600030B50B46014600202022012409E00D46CF
:10817000D5409D4205D31D469540491B2546954057
:1081800040191546521E002DF1DC30BD70B500249B
:108190002546002801DA01244042002901DA0125A0
:1081A0004942FFF7DDFFAC4200D04042002C00D036
:1081B000494270BD10B5202A04DB0846203AD04061
:1081C000002110BD0B46D340D0402024A21A91407C
:1081D0000843194610BD0000004870478429010873
:1081E00010B50446FFF7F8FF0068005DC007C00F38
:1081F00010BD03460B439B0703D009E008C9121FBB
:1082000008C0042AFAD203E00B780370401C491C12
:10821000521EF9D27047D2B201E00270401C491ED2
:10822000FBD270470022F6E710B513460A46044613
:108230001946FFF7F0FF204610BD421E5378521C2E
:10824000002BFBD10B781370491C521C002BF9D169
:10825000704730B505462A460B4610781C78521CEC
:108260005B1C002801D0A042F7D0002C03D00028CE
:1082700002D06D1CEFE7284630BD10B5044605E07E
:108280000B780370401C002B00D0491C521EF7D203
:10829000204610BD421C0178401C0029FBD1801AE9
:1082A000704710B5002200E0521C835C8C5CA34236
:1082B00001D1002BF8D1D8B2E1B2401A10BD03466B
:1082C0000A780270401C491C002AF9D118467047F0
:1082D0000FB400B58DB009900B9010A9002000914B
:1082E000C0430A9000200C9006480690064807906C
:1082F0006A4609A80F9900F0F7FD0DB008BC04B05C
:1083000018470000098F0008298F0008FFB50027D3
:10831000FF4383B000205C6801909E681D46A969F8
:108320007F1C049888470090296A88470028F6D166
:108330000098401C0CD0032040028443002E19DD1D
:10834000600614D500982B2809D02D280FD103E002
:108350000020C04307B0F0BD012080020443A9699A
:108360007F1C04988847761E0090002E02DD00983E
:10837000302803D00598002825D035E001204002A0
:108380000443A969761E7F1C049888470090002E3C
:1083900003DD782805D0582803D00598002810D090
:1083A00022E00598002801D010281DD101204002AC
:1083B0008443A969761E7F1C04988847009010208A
:1083C00002E0082000E00A2005900DE001214902AA
:1083D0000C43059A0199761E514308180190A9692A
:1083E0007F1C049888470090002E05DD05990098B1
:1083F00000F064FD0028E9DAE96904988847A005DF
:1084000002D40120C043A5E7E00722D1600611D5C0
:108410006005019800D5404229680A1D2A60096854
:10842000220501D5087014E0220701D5088010E06C
:1084300008600EE02868011D29600068210502D54A
:108440000199017005E02107019901D5018000E043
:10845000016038467EE70000FFB5087889B0154610
:10846000FF2805D0491C2D2804D00022002407E055
:1084700000240BE00122F9E70A235C430419491C9C
:108480000878FF28F8D1002A00D064420020049028
:108490002A7801462D2A01D02B2A0FD16D1C2D2AB6
:1084A00002D00022049209E00122FBE700260A2202
:1084B00033466D1C00F0A2FC381871412F78FF2F55
:1084C000F4D10C9AA218069202460A4304D0FF2364
:1084D000069A9133DA4205DA002109980A4606C065
:1084E0000DB0F0BD0024B74AB54D2646079200F006
:1084F00005FE029006980391002801DA474200E049
:10850000074639050020AF4A001C514101910090F7
:1085100012E0F80707D022462B463046079900F0B4
:10852000E9FA0646079122462B461046194600F006
:10853000E1FA04460D467F10002FEAD10698019B10
:108540000028009A0399029806DA00F03BFB3246B5
:10855000079B00F037FB05E000F0CCFA3246079BA2
:1085600000F0C8FA049A002A02D00122D207514032
:10857000099A03C2B4E7FFB591B000200990002525
:10858000ED432E209E685C681F460190B9696D1C02
:10859000129888470090396A88470028F6D10098D9
:1085A000401C0AD00D20C0018443002E12DD00982B
:1085B0002B2809D02D280DD103E00020C04315B091
:1085C000F0BD012080020443B9696D1C12988847F0
:1085D000761E009003A9600501D52D2000E02B2018
:1085E0006A461073491C0CA80F9102900AE0B96901
:1085F0006D1C129888470090012040020443139894
:10860000761E0560002E02DD00983028EFD001991B
:108610000098884246D18020044308E00998401E13
:1086200009900120400204431399681C0860B9694D
:108630006D1C761E1298884700903028EED031E0ED
:108640000199884205D1200603D480200443761E78
:108650001EE0009807F0F2FF002826D0012040021B
:10866000044307A90F980331761E88420BD2009865
:108670000F99303808700F98401C0F90200607D5CE
:108680000998401E03E0200602D40998401C099076
:10869000A00502D51399681C0860B9696D1C129871
:1086A00088470090002ECBDC59E0002E57DD009863
:1086B000652801D0452852D1A00550D503200002DD
:1086C0008443B9696D1C761E129888470090002E6D
:1086D0000CDD2B2804D02D2808D1FF2001300443C5
:1086E000B9696D1C12988847761E0090E00501D587
:1086F0002D2100E02B21029801700298401C02906D
:10870000019025E00120400204430EA902980131A6
:10871000761E88420ED20098029930380006000E6C
:10872000087003D10299019881420AD90298401C2D
:10873000029006E0E00501D5234801E022484042CE
:108740000990B9696D1C12988847009013980560CC
:10875000002E04DD009807F071FF0028D2D1F969DE
:10876000129888470F99FF200870029903AA087091
:1087700000200A900B900CA90AA8099BFFF76CFE39
:10878000A00502D40120C04319E72420044209D0E7
:10879000E00713D138680B9A0A99031D3B60006803
:1087A00006C00BE00B990A9800F0C8FA0146E007F2
:1087B00004D13868021D3A60006801602846FEE670
:1087C000000014400000F03FF1D8FFFF70B50646EE
:1087D00007F066FE046805460A220021304600F0D4
:1087E000B5FB2C6070BDF8B502464A40D40F42007C
:1087F0004B0052085B089A4202D2024608461146D4
:108800004A0023D0C30D4A00DDB2120EAD1A202D4E
:1088100035DA49020126490AF6058A19002C00D0EA
:10882000524220214F1B1146B9402A411018C20D57
:108830009A4221D0002C17D0012D08DCDA05801ACD
:10884000D20F8019D207DBB200F0C0FBF8BDDA0509
:10885000801A012340001B06C01880185A42801855
:10886000CA0F1043490007E04908C2071143DA055F
:10887000801A80194008801800F0A0FBF8BD610044
:108880000122511A001BF7E70122D2075140AAE743
:108890000122D2075040A6E7024670B54A40D30FE6
:1088A000DB0740002DD04A002AD0010E140E000232
:1088B00012020919400A520A8418E5010446544379
:1088C000000A120A2E045043A4194219200CC54371
:1088D000AA18120C0125AD03521C521912047F393B
:1088E000240400D0521C104301D44000491EC2B2DF
:1088F0000C06C0092018401C4008802A02D003E062
:10890000002070BD40084000002900DA0020184314
:1089100070BD70B502464A40D50F40004A00ED07D1
:1089200040085208002814D0002A12D0C40DD30DDC
:1089300041020120C0055202490A520AE41A0918EC
:1089400012187D34914201D3641C00E04900002CD0
:1089500001DA002070BD0023914201D3891A03433C
:10896000400849000028F7D100290AD0914202D1DD
:108970000121C90705E0914201D2012101E0012155
:10898000C943E005C018401900F018FB70BD000095
:10899000F0B507460846584087B0C00F049048001D
:1089A0000E46590040084908BC1A884105D238468D
:1089B00031461E4617460B460246580040081043F3
:1089C0004CD0300D039040055900400D490D0590E5
:1089D000401A0290402872DA18030121000B0905A1
:1089E0000843019004980092002805D00199524252
:1089F0000020884100920190029840210A1A0199B2
:108A0000009800F038FA05460C466B4607CB00F09C
:108A100042FAC0197141039A0E0D0023D717564030
:108A20001A467A40164344D0049A002A2DD0029A5E
:108A3000012A039A15DC1205C01A91410126360558
:108A4000001C7141D20F059ED2070093019202963D
:108A50002A46234600F000FB07B0F0BD38463146F9
:108A6000FAE71605224A0F46B218C01AB74101218B
:108A70000905001C4F4100187F4111461818794123
:108A8000E20F10436D19644113E0E2076D081543CE
:108A90006408C2071443039A01261205C01A9141C3
:108AA0003605001C7141CE07400830434908C01804
:108AB00051412A46234600F0C2FACDE7FFE7049869
:108AC00001224000C117121A00238B41049831463D
:108AD000C417381AA141EEE730B40124E40763401B
:108AE00030BC55E730B40124E407614030BC4FE7A7
:108AF0000000E0FFF0B51FB488B00B99099800247E
:108B000048400999C00F490049080991C0070B99CD
:108B10000090490049080B9109990898A646084316
:108B20001CD00B990A98084318D0099801244000DA
:108B3000420D4800410D099824050003000B204315
:108B400009900B980003000B20430B9050181C4910
:108B50004018002201901446104605E0002001460E
:108B60000DB0F0BD032801DA034600E003239C4664
:108B7000C11A0AAE0AE05F0008ADED5B4F00F75B7B
:108B80007D430027AA187C41491C5B1E6145F2DD2C
:108B9000410004AB5A522104120C0A43240C401C1D
:108BA0000828DFDB0198029000997046019100903F
:108BB000059B049A0799069800F04EFAD0E700004A
:108BC0000DFCFFFFF0B50C465C4085B0E40FE407F8
:108BD00003944C0000266408590094464908024654
:108BE0000296224321D062460A431ED06200570DEE
:108BF0004A000E032303550D012402462C49240587
:108C0000781B1B0B360B401823432643614600900C
:108C10001C46501AB44103D30098401C009002E057
:108C2000921800985B41002803DA0020014605B045
:108C3000F0BD0020012109050746864611E0644683
:108C40001D46141BB54106D36546521BB3417446FD
:108C500007430C43A646CD0740084908284392180D
:108C60005B4105460D43EAD11046184313D06046D8
:108C7000194650407140084306D06046101AB3416F
:108C800006D20122002306E000220123DB0702E0D6
:108C90000122D2435310009874460105381C6141EB
:108CA000029C039D0019694100F0C9F9BFE700006B
:108CB000FD03000010B500229623114600F086F94E
:108CC00010BDC20FD207400040080BD0C10D0723D2
:108CD000DB01C91840020905400A1143C2084007D8
:108CE00011437047002001467047000010B500296D
:108CF00004DB0124E40740428C412146002B04DBC5
:108D00001C460123DB075242A3418B4200D1824221
:108D100010BD000010B5002904DB0124E407404227
:108D20008C412146002B04DB1C460123DB07524209
:108D3000A341994200D1904210BD0000CB0FDB0748
:108D4000490010B5490802460A4307D00A0D072416
:108D50000903E401090B121B002A01DC002010BDED
:108D6000C900440F0C43C100E018D205801800F080
:108D700025F910BD0122D207002800DB101A0029B6
:108D800000DB511A814270470122D207002800DB24
:108D9000101A002900DB511A88427047F0B51FB441
:108DA0000646002082B005464024019100901BE059
:108DB000019922460F463046FFF7FCF9049A059BBD
:108DC000801A994110D310461946224600F053F8F4
:108DD000361A8F410197224601200021009F00F0A2
:108DE0004AF838184D4100902046641E0028DFDC08
:108DF000019B00982946324607B0F0BDF0B51FB47C
:108E000086B000200090019002900698069980B2EA
:108E100004900798090C02040014114307900027DE
:108E2000089D099806913E463C4603900398A9B2D6
:108E30000204000C039004982D0C154348430021B4
:108E4000224600F018F8C719714110340E46402C24
:108E5000ECDB3846029A00F00EF8009A019B80186D
:108E60000090594102980191103002904028CCDBCB
:108E700000980BB0F0BD10B5202A04DB0146203A63
:108E80009140002010BD914020239C1A0346E340EE
:108E90001943904010BD10B5202A06DBCB170846B9
:108EA000203A1041C1170B4306E00B461341D04056
:108EB0002024A21A91400843194610BD3A2800D236
:108EC0003038202302469A43412A01D310463738CE
:108ED000884201D30020C043704700000268137825
:108EE000511801601846704710B5D16004495161AE
:108EF0000449116200211161114600F03FF910BDD3
:108F0000DD8E0008E18100084268002A08D001686F
:108F10000B78491C002B03D0521E06C01846704720
:108F20000121C160881E70474268002A0BD0C368C7
:108F30000168002B07D183688B4204D0491E521C64
:108F400006C0002070470020C0437047F7B5009C62
:108F50000F4600262578641C002D05D0FFF73CF94C
:108F60000068405DC007F5D12B2D02D02D2D18D003
:108F7000641E39462046029A00F09CFA002F04D065
:108F80003968A14201D10099396071050224002994
:108F90000BDA4042002803DD07F082FA0460A007E4
:108FA000FEBD012080020643E3E70028F8DA07F05F
:108FB00077FA04600048FEBDFFFFFF7F002904DA56
:108FC000401C490001D140084000704770B40024A3
:108FD000050C05D11024000402D1002921D0112450
:108FE000050E01D100020834050F01D10001241D36
:108FF000850F01D18000A41C002801DB4000641C07
:10900000002908D020252E1B0D46F540A14000D098
:1090100001212943084301061B1B000ADB1D02D561
:10902000002070BC7047DB05181880180029F8DA9A
:10903000401C4900F5D170BC40084000704710B595
:10904000002B08DA0024401C614192185B411A434E
:1090500001D14008400010BDF0B51FB482B00546F4
:109060000C0003D0084607F003FA02E007F000FA0C
:1090700020300246009021462846FFF7FCFE049B64
:10908000059A04460F4618431143084314D0184666
:1090900010431BD0009840210A1A18460599FFF783
:1090A00089F805460E46009A05990498FFF7E3FEF5
:1090B000084305D0012004E02046394607B0F0BD42
:1090C0000020C11705430E432C43374300990E98E7
:1090D0006305401A7905E40A00220C43FD0A0A30B0
:1090E00002D500200146E9E70105101969410C9CF1
:1090F0000D9D00196941FFF7A2FFDFE70EB5054A94
:1091000002920022009213460192FFF7A5FF03B0DE
:1091100000BD0000330400004A0009030123090BCD
:109120001B0519430A4B10B5520D9A4202DA002072
:10913000014610BD064B34339A4203DC9A1AFFF7FE
:1091400039F810BD034BD218FFF795FE10BD000093
:10915000FF030000CDFBFFFF064C0125064E05E096
:10916000E36807CC2B430C3C98471034B442F7D348
:10917000FEF7A6FFB42B0108D42B0108F3B58DB080
:1091800000200A9001200B90002608460C300C4667
:1091900009906269012109989047051E2ED0252D5E
:1091A0002DD0216A8847002818D0626901210998CA
:1091B0009047216A88470028F7D1411E62690998C3
:1091C000904700E0761CA1690D988847216A88477E
:1091D0000028F7D1E1690D988847DAE7A1690D9871
:1091E00088470746A84201D1761CD2E7E1690D986D
:1091F00088477F1C02D10A98002877D049E10027D0
:1092000062693D463946099890472A280CD162691F
:10921000012109989047012506E00A214F433F1894
:10922000303FEBD410200543626901210998904733
:10923000014630390A2903D29B498F42DEDCECE734
:10924000E90600D4994F6C280AD04C2810D0682821
:1092500024D06A282ED074280CD07A280AD00DE0A9
:1092600062690121099890476C2823D004211CE0F1
:10927000202005436269012109989047A760656035
:1092800065284FD026DC582839D01ADC452849D02B
:1092900012DC252834D04128B0D143E06269012195
:1092A00009989047682802D008210D43E6E701207D
:1092B000C002DEE70220DCE7462833D047282CD165
:1092C00030E05B2870D061282CD063286CD06428F3
:1092D00023D161E06F284FD009DC662822D06728AF
:1092E00020D0692826D06E2817D12EE0CDE0702836
:1092F0004DD073286FD075284ED078280DD154E00A
:10930000A1690D9888470546252800D16CE7E169D9
:109310000D9888476D1C00D16DE7BAE00A224CE039
:109320000A2252E0012023466A46C0430D99FFF706
:1093300022F9A3E02846402108436060A80723469D
:1093400001D5002239E000223FE0E80700D020E705
:109350002068011D21600068290501D5067018E705
:10936000290701D5068014E7A90703D5F117066080
:1093700041600EE706600CE7284640210843606024
:10938000A807234601D5082217E008221DE0484916
:1093900028460840606016E0284640210843606087
:1093A000A8072346BCD5B9E715E028464021084365
:1093B0006060A80707D5234610220120C0430D99FD
:1093C000C046C0465AE0234610220120C0430D99F2
:1093D000FEF79CFF52E000210C910B4600916328A0
:1093E00002D05B2807D043E0E80601D40120A0604A
:1093F000012000903CE062690121099890475E28B5
:1094000005D101200C9001466269099890472169B5
:10941000002906D10B4601AA8F00491CD351082907
:10942000FADB002835D0216900290ED1C117C90EF9
:1094300009184A11930001AA9A1849094901411AC9
:109440000120136888400343136062690121099871
:1094500090475D28E5D10C98002808D0002001AB8A
:1094600081005A58401CD2435A500828F8DB01ABFF
:1094700001202246C0430D99C046C04600280ADAA2
:10948000401C06D10B98002803D00020C0430FB029
:10949000F0BD0A98FBE7E90702D10A99491C0A9135
:1094A000361800200B9074E6CCCCCC0CFFFFFF7F6D
:1094B000F1F7FFFFF7B582B0029C00272078641C0B
:1094C00015460197302802D0002D15D015E02078E0
:1094D0000127641C782804D0582802D0002D09D018
:1094E0000BE0002D01D0102D07D10027102520788A
:1094F000641C02E0082500E00A250026009610E022
:109500000099012769430818020C294680B271436B
:1095100000908E183804864201D3012001902078F3
:10952000641C2946FFF7CAFC0028E9DA03980028E2
:1095300005D0002F01D0641E00E0029C0460019859
:10954000002806D006F0ACFF02210160C81E05B05D
:10955000F0BD009930040843F9E770B58C18057820
:10956000401C6B075B0F01D10378401C2A1106D108
:109570000278401C03E006780E70401C491C5B1EFC
:10958000F9D12B0705D40023521E0DD40B70491CB2
:10959000FAE70378401CCB1A921C03E01D780D708B
:1095A000491C5B1C521EF9D5A142D8D3002070BDC6
:1095B00010B5024801F060F910BD0000242600201B
:1095C00070B50446002520688068042108408008A2
:1095D000002829D020688068084000280BD0206827
:1095E000806802210840002805D120688068102189
:1095F00008432168886001F031FE05460EE001F065
:109600002DFE401B022809D9606C102108436064BC
:10961000A06C01210843A064012070BD206880680F
:10962000042108400028EAD10020F6E770B505467D
:109630006C6A606C50210840002835D1606C0121B3
:109640004902084360642068C06803218902084019
:10965000002825D1206A002822D12068006808212E
:10966000084008281CD12068806804210840800830
:1096700000280DD1206840680C218843216848608B
:10968000606CFF210131884301210843606407E0D9
:10969000606C202108436064A06C01210843A06431
:1096A000204600F0FDFD03E0E06B016B2846884793
:1096B00070BD70B505466C6A606C402108436064FB
:1096C000A06C04210843A064204601F0D4F870BDCA
:1096D00070B50446656A284601F0CCF870BD70B5D7
:1096E00004460025206880688007800F01280ED17D
:1096F00020680068C007C00F002806D12068C06835
:109700000121C9030840884201D1012000E0002066
:10971000002837D02068806805210840012800D142
:1097200000E0002000280AD000BF206880680221E5
:1097300008432168886003202168086009E0606CA4
:10974000102108436064A06C01210843A06401203B
:1097500070BD01F083FD05460EE001F07FFD401B6A
:10976000022809D9606C102108436064A06C0121B3
:109770000843A0640120EBE720688068C007C00FA1
:109780000028EAD10020E3E738B504460025002090
:109790000090206880688007800F01280ED1206823
:1097A0000068C007C00F002806D12068C0680121EA
:1097B000C9030840884201D1012000E000200028B0
:1097C00043D12068806822490840002801D1012047
:1097D00000E00020002809D1606C1021084360647B
:1097E000A06C01210843A064012038BD2068806876
:1097F0000121084321688860164917480068FEF770
:10980000AFFC009002E00098401E009000980028F5
:10981000F9D101F023FD05460EE001F01FFD401BCC
:10982000022809D9606C102108436064A06C0121F2
:109830000843A0640120D8E720680068C007C00F73
:109840000121484048400028E7D00020CDE7000033
:109850001700008040420F008802002070B50646C5
:10986000054C06A12046FEF7F4FC0546002D01D06C
:10987000012070BD0020FCE7050300204F4B0000D5
:1098800070B50646054C06A12046FEF7E2FC0546EB
:10989000002D01D0012070BD0020FCE70503002051
:1098A0004F4B000070B50646054C06A12046FEF75A
:1098B000D0FC0546002D01D0012070BD0020FCE742
:1098C000050300204F4B000070B506460A4D0BA162
:1098D0002846FEF7BEFC0446002C01D0012070BDD6
:1098E00007A12846FEF7B5FC0446002C01D0012054
:1098F000F5E70020F3E70000050300204F4B0000D0
:109900004552524F5200000070B506460A4D0BA159
:109910002846FEF79EFC0446002C01D0012070BDB5
:1099200007A12846FEF795FC0446002C01D0012033
:10993000F5E70020F3E70000050300204F4B00008F
:109940004552524F5200000070B506460A4D0BA119
:109950002846FEF77EFC0446002C01D0012070BD95
:1099600007A12846FEF775FC0446002C01D0012013
:10997000F5E70020F3E70000050300204F4B00004F
:109980004552524F5200000070B506460A4D0BA1D9
:109990002846FEF75EFC0446002C01D0012070BD75
:1099A00007A12846FEF755FC0446002C01D00120F3
:1099B000F5E70020F3E70000050300204F4B00000F
:1099C0004552524F5200000070B506460A4D0BA199
:1099D0002846FEF73EFC0446002C01D0012070BD55
:1099E00009A12846FEF735FC0446002C01D00120D1
:1099F000F5E70020F3E70000050300202B4348545F
:109A000054504E4D494300004552524F5200000001
:109A100070B506460F4D10A12846FEF71AFC044605
:109A2000002C14D00DA12846FEF713FC0446002C90
:109A30000DD00BA12846FEF70CFC002807D109A188
:109A40002846FEF706FC002801D1012070BD002049
:109A5000FCE70000050300204F4B0000435351007A
:109A600039390000302C300010B5032200210120CC
:109A700008F0E4F90449086008460068002802D1AB
:109A800002A006F0D1FC10BD7C02002053656D6180
:109A900070686F7265206372656174206661696CBD
:109AA0006564210D0A00000010B50022012108465E
:109AB00008F0C4F90449086008460068002802D18B
:109AC00002A006F0B1FC10BD78020020637265614F
:109AD0007465206661696C65640D0A0008B5C02272
:109AE00010498803FEF785FB00BF0F4880690121FC
:109AF00008430D49886108468069C007C00F00907F
:109B000000BF00BF00BF0948006880088000074907
:109B1000086008460068032108430449086000BF44
:109B200008BD000000800008001002400000014055
:109B300070B505460E4618A11848FEF78AFB044684
:109B4000002C06D016481749886017481749486105
:109B500005E01748134988601648144948610020F9
:109B60001549886411490860486088601348086195
:109B700000210A488030416101201149087000200D
:109B80000A49C861086201200E4908700E49087030
:109B90000EA006F049FC70BD4B4500004027002098
:109BA00000005041F82700200000694334280020BD
:109BB0000000704100007A45582800209A99214001
:109BC000A7010020A8010020A90100204F4B4F4B06
:109BD0004F4B0D0A0000000010B5024801F008F9D3
:109BE00010BD00007026002010B5024801F000F9F9
:109BF00010BD0000B02B002010B50446054A2168B6
:109C0000881A1421FEF7ACFA800020640148083855
:109C1000E06310BD0800024030B50124056CAC4083
:109C2000C56B6C60046863604468102C04D10468E0
:109C3000A2600468E16003E00468A1600468E26077
:109C400030BD00007CB505460C462168881C01AA81
:109C500008A1FEF73DFB2168084608306A4605A1C9
:109C6000FEF736FB0199009805F05AFC03A006F0B8
:109C7000DBFB7CBD25366C64000000004F4B4F4B76
:109C80004F4B0D0A0000000010B5012001F0CEF985
:109C9000022001F0CBF910BD10B5042001F0C6F987
:109CA00010BD10B50120000301F0C0F910BD000087
:109CB00070B505460C46074A07A12068FEF708FB69
:109CC000064A05A16068FEF703FB012004490870FD
:109CD00070BD000058010020256400005C010020D8
:109CE0006001002070B504460D46034842680168D3
:109CF00002A006F099FB70BDF028002046696E6452
:109D00004C6F67496E6465782025642025640D0AD0
:109D10000000000070B506460C46064D2A4606A116
:109D20002068FEF7D5FA01200449087004A006F067
:109D30007BFB70BD0028002025660000A8010020E4
:109D40004F4B4F4B4F4B0D0A0000000030B587B012
:109D500004460D46002202A9124802F03BF90022F7
:109D600001A9104802F008F96846017A0E484143FB
:109D70006846407A6422504309186846807A081879
:109D800020606846C0797D21090141180648414399
:109D90006846407950430918684680790818286059
:109DA00007B030BDCC2900201027000030B593B09B
:109DB000044677A279A10EA806F046FB78A277A107
:109DC00009A806F041FB03220EA904A807F06AF9CE
:109DD00005462A4671A104A806F036FB73A104A823
:109DE000FEF75FFA002803D101206946C88070E0C1
:109DF0006FA104A8FEF755FA002803D10220694696
:109E0000C88066E06BA104A8FEF74BFA002803D1D6
:109E100003206946C8805CE067A104A8FEF741FA08
:109E2000002803D104206946C88052E063A104A839
:109E3000FEF737FA002803D105206946C88048E0BC
:109E40005FA104A8FEF72DFA002803D10620694679
:109E5000C8803EE05BA104A8FEF723FA002803D1E6
:109E600007206946C88034E057A104A8FEF719FA14
:109E7000002803D108206946C8802AE053A104A81D
:109E8000FEF70FFA002803D109206946C88020E0B8
:109E90004FA104A8FEF705FA002803D10A2069465D
:109EA000C88016E04BA104A8FEF7FBF9002803D1F7
:109EB0000B206946C8800CE047A104A8FEF7F1F921
:109EC000002803D10C206946C88002E001206946C1
:109ED000C88002220FA904A807F0E4F805462A4624
:109EE0002EA104A806F0B0FA04A8FEF76FFC81B218
:109EF0006846018104220FA9033104A807F0D2F8B3
:109F000005462A4625A104A806F09EFA04A8FEF7F5
:109F10005DFC81B268468181022209A904A807F08C
:109F2000C1F805462A461DA104A806F08DFA04A82A
:109F3000FEF74CFC81B268460180022209A9033178
:109F400004A807F0AFF805462A4614A104A806F0B5
:109F50007BFA04A8FEF73AFC81B2684641800222EF
:109F60000AA9023104A807F09DF805462A460BA16C
:109F700004A806F069FA04A8FEF728FC81B2684636
:109F800081800E2269462046FEF733F913B030BDBA
:109F900041756720323420323032300025730000A2
:109FA00031333A31393A3232000000004A616E00F2
:109FB000466562004D617200417072004D6179002A
:109FC0004A756E004A756C004175670053657000F4
:109FD0004F6374004E6F76004465630010B58AB01D
:109FE00000200890099008AC089009906846FFF797
:109FF000DDFE68460FC8079304AB07C36846C28AF4
:10A000000AA108A806F020FA6846FFF7CFFE6846C6
:10A010000FC8079304AB07C36846028B03A1223025
:10A0200006F012FA20460AB010BD00002530326456
:10A0300000000000F8B5044600250026002700BFF8
:10A040004020005D012801D10220F8BD01214020FF
:10A05000015500BF206880688007800F01280CD15F
:10A06000206800680840002805D12068C068C9033E
:10A070000840884201D1012000E0002000283FD1A3
:10A08000606CFF210131884302210843606420682D
:10A09000C0688707BF0F2068C068800880002168FB
:10A0A000C860206880680121C9070843216888606A
:10A0B00001F0D4F8064611E001F0D0F8801B022828
:10A0C0000CD9606C0221884310210843606400BFF2
:10A0D00000214020015500BF0120B6E720688068BC
:10A0E000C00FC0070028E7D12068C0683843216846
:10A0F000C860606C0221884301210843606404E069
:10A10000606C202108436064012500BF00214020CD
:10A11000015500BF284698E7F8B504460D460026CD
:10A120000020009001210907A06B884215D0A06B88
:10A13000012812D0A06B02280FD0A06B03280CD0EE
:10A14000A06B042809D0A06B052806D0A06B0628B8
:10A1500003D0A06B072800D000BF00BF4020005DE7
:10A16000012801D10220F8BD01214020015500BF86
:10A170002068806804210840800800287BD1444979
:10A18000686888425BD02068806A2A780121914003
:10A1900008432168886201210907A06B884229D001
:10A1A000A06B012826D0A06B022823D0A06B032827
:10A1B00020D0A06B04281DD0A06B05281AD0A06B5E
:10A1C000062817D0A06B072814D0A8682168496911
:10A1D0004907490F88420DD020684069C008C00077
:10A1E0002168486120684069297A4907490F084376
:10A1F000216848612868102802D0286811283FD1BA
:10A20000244880682968102901D1C90401E001218E
:10A21000890508431F4988602868102830D11E49E5
:10A220001E480068FDF79CFF0A214843009002E0A9
:10A230000098401E009000980028F9D120E0206886
:10A24000806A2A78012191408843216888622868C1
:10A25000102802D02868112812D10E488068296879
:10A26000102902D1C90402E005E0012189058843D3
:10A270000849886004E0606C20210843606401267E
:10A2800000BF00214020015500BF30466BE70000B1
:10A29000011000000027014040420F00880200200A
:10A2A000F1B586B0069800F017FD0026FE4800784C
:10A2B00000287DD1FD4800780028FAD1FC480078BC
:10A2C0000028F6D1FB4800780028F2D1FA4800783F
:10A2D000012855D1F948007803282ED1F84908689B
:10A2E000FEF7E8FC8B21C9050390FEF712FB074639
:10A2F000FEF7E7FCF34AF44B05910490FEF7FAFBF6
:10A300000446FEF71BFDF1490860F1A1F148FDF795
:10A31000C8FF00280AD1ED480068EF490860EF48FF
:10A32000EF4908600020EF49086006E0E748006850
:10A33000ED4908600020ED490860E04800780128F8
:10A34000C7D1DF490868FEF7B5FC8B21C90503902A
:10A35000FEF7DFFA0746FEF7B4FCDA4ADA4B05915E
:10A360000490FEF7C7FB0446FEF7E8FCD7490860F7
:10A37000DFA1D848FDF795FF002802D1DD4908602C
:10A3800067E1DD480078002807D0DB480078012825
:10A39000F6D1DA4800780328F2D1CDA1D848FDF7EC
:10A3A00080FF002873D1C9480068FEF78AFC00E0EE
:10A3B000D2E10446D34AD44BFEF7ACFC68D27F21ED
:10A3C000C905C2480068FEF7D5FC61D8BF480068DF
:10A3D000FEF777FC0446CD4ACD4BFEF79BFC15D229
:10A3E000BA480068FEF76DFCCA4ACB4B0391029055
:10A3F000FEF780FBC94ACA4B05910490FEF76CFB3F
:10A400000446FEF79BFCBB49086014E0AF480068B7
:10A41000FEF757FCC34AC44B03910290FEF76AFB58
:10A420000446C24AC24BFEF757FB05910490FEF763
:10A4300085FCB04908600021AE480068FEF7A4FC26
:10A440009ED2BC49AB480068FEF794FC98D2AA485B
:10A45000007801281DD1B848C168A6480068FEF7F9
:10A460001BFA0190FEF72DFC04460022B34BFEF7C9
:10A47000A9FB0022B14B03910290FEF73BFB059133
:10A480000490FEF75BFC074605F092FA1CE036E00C
:10A490001EE0A948C16897480068FEF7FDF90190E1
:10A4A000FEF70FFC0022A54B03910290FEF78AFBFA
:10A4B0000022A34B05910490FEF71CFB0446FEF717
:10A4C0003DFC074605F074FA002086490860C0E0AC
:10A4D0007F21C9057D480068FEF756FC06D214208E
:10A4E00080490860002083490860B2E07D48006828
:10A4F000401C7C49086000207E490860A9E0734840
:10A500000068FEF7DEFB04466E4A52428D4BFEF7B2
:10A5100001FC7DD2012189076C480068FEF72AFC06
:10A5200076D8894908687F21C905FEF7ADF9074645
:10A53000FEF7C7FB0446854A854BFEF7D7FB23D2BF
:10A5400081494868FEF7BDFB0446804A804BFEF710
:10A55000CDFB19D27849C868FEF7B3FB039102908E
:10A560005A480068FEF7ADFB0191009006F0B0FC80
:10A570000446039B029AFEF7BDFA05910490FEF78C
:10A58000DDFB5C4908600DE06F4908684F490968C8
:10A59000FEF782F904466C4841682046FEF723F92D
:10A5A000544908605448007801281BD16248C168AA
:10A5B00050480068FEF770F90190FEF782FB002218
:10A5C0005E4B03910290FEF7FDFA00225B4B059172
:10A5D0000490FEF78FFA0446FEF7B0FB074605F03D
:10A5E000E7F91CE05448C16842480068FEF754F996
:10A5F0000190FEF766FB04460022504BFEF7E2FA9C
:10A6000000224F4B03910290FEF774FA059100E08F
:10A6100009E00490FEF792FB074605F0C9F9002017
:10A620003049086015E00121890728480068FEF7D5
:10A63000ABFB06D214202B49086000202D4908608E
:10A6400007E028480068401C264908600020294986
:10A6500008604048007801287ED13B4908687F2186
:10A66000C905FEF711F90746FEF72BFB0446374AEA
:10A67000374BFEF73BFB70D233494868FEF721FBAE
:10A680000446324A324BFEF731FB78D20C49486817
:10A69000FEF710FB8B21C9050190FEF73AF907463A
:10A6A000FEF70FFB044659E00101002002010020E3
:10A6B00003010020E801002022010020A401002065
:10A6C0005C2500206666666666660A4024010020F6
:10A6D000310000000A280020340100204C37494096
:10A6E00038010020E00100202C0100203001002072
:10A6F0003000000028010020B801002018010020CF
:10A70000F427002021B0726891EDE03F48E17A140F
:10A71000AE47E13F2506819543034B4024287E8CBC
:10A72000B99B3B40462575029AD041401361C3D383
:10A730002B3532400000A0413428002000004E405C
:10A74000000008409999E13FBC010020314514EE1A
:10A75000F032AE3E210100205FE010E03C4A3D4B6C
:10A76000FEF7C8F9002201239B0703910290FEF730
:10A77000C1F905910490FEF7E1FA064641E0364939
:10A780004868FEF797FA0490344801680498FEF789
:10A7900083F80746314841683846FEF724F80590AB
:10A7A000FEF78FFA04462A4A52422D4BFEF79EFAD4
:10A7B00016D229494868FEF77DFA074627480168FE
:10A7C0003846FEF769F80546244841682846FEF7F2
:10A7D0000AF8044601218907FEF75EF8064610E0F4
:10A7E0001D494868FEF766FA05461C480168284678
:10A7F000FEF752F80446194841682046FDF7F3FF7A
:10A8000006463046FEF75DFA0446114A114BFEF744
:10A8100081FA01D213480660002613480078012807
:10A8200010D112480078032805DA10480078401C3F
:10A830000E49087009E000200C49087001200C49FD
:10A84000087002E001200A49087007B0F0BD00005E
:10A850006666666666660A405C250020BC010020CC
:10A8600099990540F8270020B80100201801002020
:10A87000230100207047704710B504462068006827
:10A8800004210840042804D12068406808400428B6
:10A890000AD02068006808210840082840D12068B4
:10A8A0004068084008283BD1606C1021084000280F
:10A8B00003D1606C4901084360642068C0680321CB
:10A8C00089020840002825D1206A002822D120686A
:10A8D00000680821084008281CD1206880680421ED
:10A8E0000840800800280DD1206840680C2188436A
:10A8F00021684860606CFF210131884301210843D1
:10A90000606407E0606C202108436064A06C012152
:10A910000843A0642046FFF7C3FC0C2021680860B0
:10A92000206800688021084080280ED12068406897
:10A930000840802809D1606C4902084360642046C1
:10A9400000F006F980202168086020680068102166
:10A95000084010281AD1206840680840102815D1F6
:10A96000606B012805D02068C068C007C00F0028B0
:10A9700009D0A06C02210843A0641020216808605F
:10A980002046FFF778FF10202168086010BD000006
:10A9900070B5044600260025002C01D1012070BDB1
:10A9A000606C002806D1A06400214020015520469B
:10A9B00000F0D0F8606C1021084000287ED1002EF5
:10A9C000FCD1206880680421084080080028F5D167
:10A9D000606C8901884302210843606420688068B4
:10A9E0008007800F01280DD120680068C007C00FC4
:10A9F000002805D12068C06889030840884201D139
:10AA0000012000E0002000280FD12068C068182134
:10AA10008843A16808432168C860206800698000F5
:10AA2000800861680843216808612068C068464959
:10AA300008402168C860A0698003E169C903084330
:10AA4000216A49030843616B012902D001210903EE
:10AA500000E000210843E16808432169022901D18F
:10AA6000042100E000210843216B4900084305430D
:10AA7000606A01280ED1206A002803D10120000459
:10AA8000054307E0606C202108436064A06C01214D
:10AA90000843A064FF21C231A06A884203D0E16A62
:10AAA000A06A084305432068C06828432168C8603D
:10AAB00001210907A06B884216D000E03DE0A06BA1
:10AAC000012811D0A06B02280ED0A06B03280BD058
:10AAD000A06B042808D0A06B052805D0A06B062821
:10AAE00002D0A06B07280DD120684069C008C000C3
:10AAF0002168486120684069218F4907490F084350
:10AB0000216848612068C06810490840A84208D1FF
:10AB10000020A064606C0221884301210843606426
:10AB200010E0606C02218843102108436064A06C2F
:10AB300001210843A064012604E0606C1021084351
:10AB40006064012630462AE71902FEFFE7FF3F83D3
:10AB50007047000010B586B0044627492068884237
:10AB600048D100BF254880694915084323498861B9
:10AB70000846806949150840009000BF00BFA0202A
:10AB80000190032002900020039001A90920C00633
:10AB900000F05CFA1A481B49086000204860002158
:10ABA000184881608021C16089000161890041618C
:10ABB000202181610021C16100F092F9002803D0B9
:10ABC0008E2111A005F02EFC00BF0D487830806A60
:10ABD000000900010A49783188620846806A01212B
:10ABE000084307497831886200BF00BF0548E06329
:10ABF000446200BF06B010BD0024014000100240B6
:10AC000008000240702600202E2E2F5372632F6101
:10AC100064632E6300000000F8B504460D46164636
:10AC2000002720688068042108408008002848D157
:10AC300000BF4020005D012801D10220F8BD0121A4
:10AC40004020015500BFE069012803D02046FEF7EF
:10AC50009BFD0746002F35D1606C1B490840FF2142
:10AC60000131084360640020A06400BF002140203F
:10AC7000015500BF1548E16B88621548E16BC86259
:10AC80001448E16B08631C20216808602068406854
:10AC900010210843216848602068C06801210843EA
:10ACA0002168C86022681146403133462A46E06B6D
:10ACB00000F048F920688068042108432168886012
:10ACC00000E002273846B9E7FEF1FFFF2D960008A5
:10ACD000D1960008B396000870B50446002500BF61
:10ACE0004020005D012801D1022070BD01214020DB
:10ACF000015500BF2046FEF763FC0546002D28D114
:10AD00002068C068400840002168C860E06B00F01F
:10AD100027F80546002D03D0606C4021084360648D
:10AD2000206840681021884321684860002D04D1C4
:10AD30002046FEF7D4FC054602E02046FEF7CFFC95
:10AD4000002D06D1606CFF210131884301210843A9
:10AD5000606400BF00214020015500BF2846C4E7C1
:10AD60000146086800680E2290430A68106008686F
:10AD70000068400840000A68106001200A6C90409A
:10AD8000CA6B506001222120425400BF00222020C3
:10AD9000425400BF0020704770B5044600252120B2
:10ADA000005D022803D00420A06301251EE0206876
:10ADB00000680E2188432168086020680068400808
:10ADC0004000216808600120216C8840E16B4860E8
:10ADD00001212120015500BF00212020015500BF85
:10ADE000606B002802D02046616B8847284670BD02
:10ADF00070B50446E06B0568206806680420216C85
:10AE00008840284000281BD004203040002817D05C
:10AE10002068006820210840002805D120680068CB
:10AE200004218843216808600420216C8840E16B7C
:10AE30004860E06A002852D02046E16A88474EE028
:10AE40000220216C88402840002823D00220304076
:10AE500000281FD02068006820210840002808D161
:10AE6000206800680A2188432168086001212120A8
:10AE700001550220216C8840E16B486000BF002131
:10AE80002020015500BFA06A002828D02046A16AD2
:10AE9000884724E00820216C8840284000281ED0E4
:10AEA0000820304000281AD0206800680E2188430E
:10AEB000216808600120216C8840E16B4860012016
:10AEC000A06301212120015500BF00212020015550
:10AED00000BF206B002802D02046216B884770BD40
:10AEE00070B504460025002C01D1012070BD02215F
:10AEF000212001552068056811480540A168606857
:10AF00000843E16808432169084361690843A1696E
:10AF10000843E16908430543206805602046FEF7C1
:10AF20006BFE0020A062E06220636063A0630121E9
:10AF3000212001550021202001550020D6E70000E6
:10AF40000FC0FFFFF8B504460D4616461F46002009
:10AF5000009000BF2020005D012801D10220F8BD33
:10AF600001212020015500BF2120005D01282DD1A5
:10AF70000221212001550020A063206800684008BC
:10AF80004000216808603B46324629462046FEF7CD
:10AF900043FEE06A002806D0206800680E210843BE
:10AFA000216808600BE0206800680A2108432168D6
:10AFB00008602068006804218843216808602068D0
:10AFC0000068012108432168086006E000BF0021F5
:10AFD0002020015500BF022000900098BFE731B546
:10AFE00000F03CF90546009C601C002800D0641C61
:10AFF00000BF00F033F9401BA042FAD338BD000077
:10B00000012807D0022805D0042803D00121090314
:10B01000884206D103490978002902D10121024A58
:10B02000117070476E0100206D01002010B50446BC
:10B03000054840692040002804D003484461204668
:10B04000FFF7DEFF10BD00000004014078B50346A5
:10B05000002200240020DEE0012696400D683540E5
:10B060002C46002C7ED04D68022D02D04D68122D4A
:10B0700015D1D508AE001D462035A8595507EE0E4E
:10B080000F25B5400646AE4330465607F60E0D690D
:10B09000B5402843D508AD001E46203670511868CB
:10B0A00056000325B5400646AE4330460D79AD0740
:10B0B000AD0F5600B540284318604D68012D08D0EB
:10B0C0004D68022D05D04D68112D02D04D68122D0E
:10B0D00018D1986856000325B5400646AE43304661
:10B0E0005600CD68B54028439860586801259540C2
:10B0F0000646AE43304610264D6835402D09954032
:10B1000028435860D86856000325B5400646AE432C
:10B11000304656008D68B5402843D8600126360772
:10B120004D683540B54275D100BF3E4DAD69012631
:10B1300035433C4EB5613546AD69ED07ED0F0095E1
:10B1400000BF00BF384D9608B600A85995072E0FCE
:10B150000F25B5400646AE4330460925ED06AB4205
:10B1600003D100E056E000250FE0304DAB4201D1A5
:10B1700001250AE02E4DAB4201D1022505E02D4DFF
:10B18000AB4201D1032500E005259607360FB540F7
:10B190002843254D9608B600A851274D2868054636
:10B1A000A5432846012636044D683540B54202D1F4
:10B1B000054625432846204D286068680546A54376
:10B1C0002846012676044D683540B54202D1054631
:10B1D00025432846184D6860A8680546A5432846BB
:10B1E000012636054D683540B54202D10546254356
:10B1F0002846114DA860E8680546A5432846012663
:10B2000076054D683540B54202D1054625432846AE
:10B21000094DE860521C0D68D540002D00D01BE799
:10B2200078BD000000100240080001400004004802
:10B2300000080048000C0048000401400246136961
:10B240000B40002B01D0012000E000207047002AB5
:10B2500001D0816100E08162704700000148006810
:10B26000704700008402002002480068401C014929
:10B27000086070478402002010B50648006810215D
:10B28000084304490860002000F006F800F04CF87C
:10B29000002010BD0020024070B586B00446002595
:10B2A0000026002221460D2000F086F80D2000F037
:10B2B00077F800BF174880690121C9020843154982
:10B2C000886108468069C9140840009000BF00BF2B
:10B2D00001A902A800F022FA00F042FA05460E4940
:10B2E0002846FCF73DFF461E0C480D4908600D49F5
:10B2F0000B48C160466000210161816001F07EFB66
:10B30000002804D1064801F0C1FB06B070BD012041
:10B31000FBE700000010024040420F00002C0140FB
:10B32000F42B0020E703000008B500BF1548806932
:10B33000012108431349886108468069C007C00F8E
:10B34000009000BF00BF00BF0846C0690904084361
:10B350000C49C8610846C06909040840009000BF54
:10B3600000BF00221146501F00F026F800220321E2
:10B37000481F00F021F800220321081F00F01CF8EC
:10B3800008BD00000010024000BFC206D20E01211D
:10B390009140024A116000BF7047000080E100E068
:10B3A00000BFC206D20E01219140024A116000BFC7
:10B3B0007047000000E100E070B504460D461646F7
:10B3C0002946204603F052FA70BD00000348006889
:10B3D000FF210131084301490860704700700040B7
:10B3E000F8B504460026002501210904206808401C
:10B3F00088427AD100274B48C069090308400028D9
:10B400000DD100BF4748C06908434649C861084696
:10B41000C06909040840009000BF00BF01274248EE
:10B420000068FF2101310840002816D13E4800681D
:10B4300008433D490860FFF711FF064606E0FFF7A5
:10B440000DFF801B642801D90320F8BD3648006831
:10B45000FF21013108400028F1D03248006A032161
:10B46000090208400546002D2DD060680840A8421A
:10B4700029D02C48006A884305462A48006A0121E1
:10B4800009040843274908620846006A01210904A3
:10B4900088432449086208460562E807C00F00286F
:10B4A00011D0FFF7DBFE064607E0FFF7D7FE801B53
:10B4B0001E49884201D90320C7E71A48006A0221C1
:10B4C00008400028F1D01748006A03210902884388
:10B4D0006168084313490862012F05D10846C06915
:10B4E000090488430F49C86100BF2078C007C00F16
:10B4F000002807D00B48006B80088000A168084333
:10B5000008490863202120680840202807D1054801
:10B51000006B10218843E16808430249086300205A
:10B5200093E7000000100240007000408813000004
:10B5300070B504460D4600265D480068C007C00F80
:10B54000A8420ED25A480068400840002843584993
:10B55000086008460068C007C00FA84201D001205B
:10B5600070BD022120680840022807D15148406878
:10B57000F0218843A16808434E4948602078C007FD
:10B58000C00F00285FD06068012808D149480068D2
:10B59000012149040840002815D10120E0E7606836
:10B5A000022808D1434800680121490608400028C4
:10B5B00009D10120D4E73F48006802210840002853
:10B5C00001D10120CCE73B484068800880006168D9
:10B5D000084338494860FFF741FE06466068012885
:10B5E0000FD107E0FFF73AFE801B3349884201D9AB
:10B5F0000320B5E72F4840680C2108400428F1D10A
:10B6000021E0606802280FD107E0FFF727FE801BCA
:10B610002949884201D90320A2E7264840680C2125
:10B6200008400828F1D10EE007E0FFF717FE801B65
:10B630002149884201D9032092E71E4840680C2125
:10B6400008400028F1D11A480068C007C00FA8427E
:10B650000ED9174800684008400028431449086084
:10B6600008460068C007C00FA84201D0012077E754
:10B67000042120680840042808D10E4840680721AA
:10B6800009028843E16808430A49486000F07AF8F3
:10B6900008494968F02211400909084A515CC8402C
:10B6A000074908600020FFF7F7FD002058E7000079
:10B6B000002002400010024088130000E828010822
:10B6C0008802002010480068812108430E49086064
:10B6D000084640680D4908400B4948600846006824
:10B6E0000B490840084908600846006801218904A0
:10B6F00088430549086000204860C8620863886084
:10B700000448054908607047001002400CF8FFF03B
:10B71000FFFFF6FE00127A00880200200722026076
:10B720000A4A52689207920F4260084A5268F02310
:10B730001A408260054A526807231B021A40C26001
:10B74000034A1268D207D20F0A6070470010024005
:10B750000020024001480068704700008802002075
:10B7600000B5FFF7F7FF05494968072212021140AB
:10B77000090A034A515CC84000BD000000100240A5
:10B78000F8280108F0B589B025A001460EC9C068A7
:10B7900005AC0EC4089026A001460EC9C06801ACD5
:10B7A0000EC40490002400260027002500200090ED
:10B7B000234844680C20204000282AD0042802D0C6
:10B7C000082825D102E01F48009025E00F208004C2
:10B7D0002040800C05A90D5C1948C06A0007000FC5
:10B7E00001A90E5C0320C003204001210904884206
:10B7F00006D131461348FCF7B3FC6843074605E021
:10B8000031461048FCF7ACFC68430746009703E05C
:10B8100000BF0C48009000BF00BF009809B0F0BD09
:10B8200002030405060708090A0B0C0D0E0F101081
:10B830000102030405060708090A0B0C0D0E0F1080
:10B840000010024000127A00F8B504460025207866
:10B85000C007C00F002872D0FA4840680C21084089
:10B8600004280CD0F74840680840082813D1F54850
:10B870004068490308400121090488420BD1F1487E
:10B88000006801214904084000286BD06068002846
:10B8900068D10120F8BD00BF6068012807D1E948E0
:10B8A0000068012109040843E649086031E0606846
:10B8B00000280ED1E3480068012109048843E149CA
:10B8C000086008460068012189048843DD49086052
:10B8D0001FE0606805280ED1DA480068012189045C
:10B8E0000843D84908600846006801210904084354
:10B8F000D44908600DE0D348006801210904884359
:10B90000D049086008460068012189048843CD4970
:10B91000086000BF6068002812D0FFF79FFC054652
:10B9200006E0FFF79BFC401B642801D90320B1E728
:10B93000C44800680121490408400028F1D011E002
:10B94000FFF78CFC054606E0FFF788FC401B6428E7
:10B9500001D903209EE7BB48006801214904084043
:10B960000028F1D1022120680840022862D1B548A0
:10B9700040680C21084000280CD0B24840680840BC
:10B9800008281CD1AF484068490308400121C90379
:10B99000884214D1AB48006802210840002804D036
:10B9A000E068012801D0012074E7A6480068F8216A
:10B9B00088432169C9000843A24908603AE0E06869
:10B9C000002820D09F480068012108439D49086055
:10B9D000FFF744FC054606E0FFF740FC401B022849
:10B9E00001D9032056E79748006802210840002843
:10B9F000F2D094480068F82188432169C9000843BF
:10BA00009049086016E08F480068400840008D4962
:10BA10000860FFF723FC054606E0FFF71FFC401B0C
:10BA2000022801D9032035E7864800680221084032
:10BA30000028F2D1082120680840082831D1E069A7
:10BA4000002817D07F48406A012108437D49486299
:10BA5000FFF704FC054606E0FFF700FC401B022848
:10BA600001D9032016E77748406A022108400028E0
:10BA7000F2D016E07348406A4008400071494862BD
:10BA8000FFF7ECFB054606E0FFF7E8FB401B02284A
:10BA900001D90320FEE66B48406A022108400028D5
:10BAA000F2D1042120680840042871D1002665489D
:10BAB000C0698906084000280DD100BF6148C069EF
:10BAC00008436049C8610846C069090408400090FD
:10BAD00000BF00BF01265C480068FF21013108401B
:10BAE000002816D158480068084357490860FFF7F6
:10BAF000B5FB054606E0FFF7B1FB401B642801D902
:10BB00000320C7E650480068FF21013108400028A3
:10BB1000F1D000BFA068012806D14A48006A01217F
:10BB20000843484908622BE0A06800280CD145482A
:10BB3000006A40084000434908620846006A042140
:10BB40008843404908621BE0A06805280CD13D48A5
:10BB5000006A042108433B4908620846006A012143
:10BB60000843384908620BE03648006A4008400044
:10BB7000344908620846006A042188433149086252
:10BB800000BFA068002813D0FFF768FB054608E057
:10BB900029E0FFF763FB401B2C49884201D90320B1
:10BBA00078E62848006A022108400028F1D011E018
:10BBB000FFF754FB054607E0FFF750FB401B234906
:10BBC000884201D9032065E61E48006A0221084028
:10BBD0000028F1D1012E05D11A48C06931078843E8
:10BBE0001849C86100BF10212068084010285FD1A3
:10BBF000606901282CD11348406B04210843114986
:10BC000048630846406B012108430E494863FFF72B
:10BC100025FB054606E0FFF721FB401B022801D962
:10BC2000032037E60748406B022108400028F2D085
:10BC30000448406BF8218843A169C90008430149C1
:10BC4000486335E000100240007000408813000097
:10BC50006069401D00280FD14E48406B0421884385
:10BC60004C4948630846406BF8218843A169C900E4
:10BC70000843484948631BE04648406B0421084399
:10BC8000444948630846406B400840004863FFF75A
:10BC9000E5FA054606E0FFF7E1FA401B022801D964
:10BCA0000320F7E53B48406B022108400028F2D111
:10BCB000206A00286CD0374840680C2108400828CA
:10BCC00064D0206A022847D1324800680121090661
:10BCD000884330490860FFF7C1FA054606E0FFF7E0
:10BCE000BDFA401B022801D90320D3E5294800688A
:10BCF0000121490608400028F1D100BF2548C06A4B
:10BD000000090001E16A08432249C862616AA06A29
:10BD10000843204949687B22D203914308431D49C7
:10BD2000486000BF08460068012109060843194918
:10BD30000860FFF793FA054606E0FFF78FFA401B0D
:10BD4000022801D90320A5E512480068012149060F
:10BD500008400028F1D01BE00E48006801210906C8
:10BD600088430C490860FFF779FA054606E0FFF7BB
:10BD700075FA401B022801D903208BE505480068AD
:10BD80000121490608400028F1D101E0012081E5A8
:10BD900000207FE50010024030B58BB004463548E6
:10BDA000407C002803D03448007801282DD100239E
:10BDB000FF22013201A9204600F094F800206946D4
:10BDC000087148718979084614303C21FCF7DEF986
:10BDD000C8B26946887100200290049005902748F7
:10BDE0000690002007900890012008A90871000221
:10BDF0000A90002201A9204600F0A4F9002837D0BB
:10BE0000FF2171311EA004F00DFB0023FF2201323F
:10BE100001A9204600F066F80020694608714879BB
:10BE20000521FCF7B3F981004018451D3C21284647
:10BE3000FCF7ACF9C8B269464871002088710290DD
:10BE40000490059012480690002007900890012069
:10BE500008A9087100020A90002201A9204600F0FA
:10BE600071F9002804D0FF218C3105A004F0DAFA22
:10BE70000BB030BDC0270020A401002000808080CE
:10BE80002E2E2F5372632F6D61696E2E630000009A
:10BE90000000808010B504462068806801210903F5
:10BEA0000840000B002811D02068C0680911084024
:10BEB000000A00280AD02046FFF76EFF2068C068FD
:10BEC00080210840054908432168C86001204004DA
:10BED000034948610120607710BD00007FFEFFFF2D
:10BEE00000040140F8B506460C461F460025002018
:10BEF0000090FF20013060623068C5693068406C96
:10BF00004004400C00903F2000042840000C2070AA
:10BF10007F2000022840000A60706806400EA07072
:10BF2000012080052840000CE070009860603F20F0
:10BF300000062840010E2020015540062840E061FF
:10BF40000C4828406061002F11D1207802F032FEA9
:10BF50002070607802F02EFE6070A07802F02AFE59
:10BF6000A0702021085D02F025FE20210855002048
:10BF7000F8BD000080808080F0B506460C4617466C
:10BF8000002530684068124908400546FF2000043B
:10BF90002840000CE0701F2000022840000A60705A
:10BFA000A806800EA070072040032840400B207098
:10BFB000002F0BD1E07802F0FDFDE070607802F018
:10BFC000F9FD6070A07802F0F5FDA0700020F0BDD2
:10BFD0003FFFFF00F0B505460C46174600262868CF
:10BFE000806A6060286800694004400CA06028688E
:10BFF00000681249084006463F2000043040000C0B
:10C0000020707F2000023040000A60707006400EF1
:10C01000A070012080053040000CE070002F0BD193
:10C02000207802F0C7FD2070607802F0C3FD6070D8
:10C03000A07802F0BFFDA0700020F0BD7F7F7F00E0
:10C0400010B50446002C01D1012010BD607F0028EE
:10C0500003D12077204600F065F80220607700BF0A
:10C06000CA202168486253202168486200BF2046E8
:10C0700002F0BAFD002808D000BFFF202168486206
:10C0800000BF042060770120DFE720688068244932
:10C090000840216888602169606808436169084335
:10C0A000216889680843216888602168E068086120
:10C0B0002068006921890904084321680861206813
:10C0C000C068802188432168C8602068806820217A
:10C0D000084000280DD1204600F040FA002808D082
:10C0E00000BFFF202168486200BF04206077012064
:10C0F000ABE72068006C012189048843216808644B
:10C100002068006CA16908432168086400BFFF2013
:10C110002168486200BF01206077002095E7000099
:10C12000BFFF8FFF054A0168914205D10449096AA2
:10C13000D2131143024A11627047000000280040E8
:10C1400000100240FEB504460D46164600270020AA
:10C150000190009000BF207F012801D10220FEBD88
:10C160000120207700BF02206077002E2AD12068AE
:10C17000806840210840002800D002E00020E870DC
:10C1800000BFE869002800D100E000BF287802F075
:10C190001EFD0304687802F01AFD00020343A8782C
:10C1A00002F015FD0343E878000403432021485DB5
:10C1B00002F00DFD00060343E86903436869034389
:10C1C00001932FE02068806840210840002804D0B7
:10C1D000287802F0EFFC019002E00020E87000BF38
:10C1E000E869002805D12021485D02F0E3FC0190B8
:10C1F00005E02021485D02F0DDFC019000BF2878B9
:10C200000004697809020843A9780843E978090419
:10C2100008432021495D09060843E9690843696923
:10C2200008430190A96968680843009000BFCA20CC
:10C230002168486253202168486200BF20688068F6
:10C24000FF2101318843216888602068C06880210F
:10C250000840284908432168C860FEF7FFFF0746E9
:10C2600013E0FEF7FBFFC01B7D21C90088420CD9FB
:10C2700000BFFF202168486200BF0320607700BF35
:10C280000020207700BF032069E72068C068C0074E
:10C29000C00F0028E5D001982168C8610098216886
:10C2A000486420688068FF21013108432168886064
:10C2B00020688068012109030843216888600E48CE
:10C2C00000680121490408430B490860084680685A
:10C2D0000121490408430849886000BFFF20216804
:10C2E000486200BF0120607700BF0020207700BFB8
:10C2F00000BF34E77FFEFFFF00040140F8B50446AD
:10C300000D461646002700BF207F012801D10220DC
:10C31000F8BD0120207700BF02206077002E09D1F0
:10C32000687810210840102804D16878EF2108406F
:10C330000A306870002E11D1E87802F048FC03043E
:10C34000687802F044FC00020343A87802F03FFC46
:10C3500003432878400303431F4612E0687802F045
:10C3600029FC0746A87802F025FC0746E878000477
:10C37000697809020843A9780843297849030843E2
:10C38000074600BFCA2021684862532021684862DE
:10C3900000BF204602F028FC00280CD000BFFF2080
:10C3A0002168486200BF0420607700BF002020772A
:10C3B00000BF0120ACE7174838402168486020687A
:10C3C000C068802188432168C86020688068202177
:10C3D0000840002811D1204600F0C0F800280CD0F9
:10C3E00000BFFF202168486200BF0420607700BFC3
:10C3F0000020207700BF01208AE700BFFF202168CE
:10C40000486200BF0120607700BF0020207700BF96
:10C4100000BF7DE73FFFFF00F8B504460D46164616
:10C42000002700BF207F012801D10220F8BD012094
:10C43000207700BF02206077002E1BD12068806823
:10C4400040210840002800D002E00020E87000BF32
:10C45000287802F0BCFB0304687802F0B8FB000205
:10C460000343A87802F0B3FB0343E87800040343D6
:10C470001F4618E02068806840210840002804D04A
:10C48000287802F097FB074602E00020E87000BF22
:10C4900028780004697809020843A9780843E978F4
:10C4A00009040843074600BFCA2021684862532098
:10C4B0002168486200BF204602F096FB00280CD09D
:10C4C00000BFFF202168486200BF0420607700BFE2
:10C4D0000020207700BF0120A8E71F4838402168CE
:10C4E0000860206880680121890488432168886089
:10C4F0002969E868084321688968084321688860D9
:10C500002068C068802188432168C86020688068EE
:10C5100020210840002811D1204600F01FF80028F3
:10C520000CD000BFFF202168486200BF0420607764
:10C5300000BF0020207700BF012077E700BFFF2069
:10C540002168486200BF0120607700BF002020778B
:10C5500000BF00BF6AE700007F7F7F0070B5044620
:10C5600000252068C068A02188432168C860FEF7C4
:10C5700075FE054608E0FEF771FE401B7D21C900EF
:10C58000884201D9032070BD2068C068202108407E
:10C590000028F0D00020F6E770B50446002C01D149
:10C5A000012070BD606A002800D100BF0021A16297
:10C5B0005D20005D002804D15C200155204600F07C
:10C5C00059F802215D200155206800684021884308
:10C5D0002168086007210902E068884201D9002526
:10C5E00001E001252D030F210902E068884206D0F1
:10C5F00007210902E068884201D00021A162206B76
:10C60000002809D107210902E068884202D90221E5
:10C61000216301E001212163A16860680843216969
:10C6200008436169084301225202A169114008438D
:10C63000E1690843216A0843A16A08432168086048
:10C64000A069000C04210840616A0843616B08433B
:10C65000E16808432843216848602068C069910068
:10C6600088432168C8610020206601215D200155B2
:10C67000002096E710B586B004461249206888422B
:10C680001DD100BF1048C069091408430E49C86194
:10C690000846C069012189030840009000BF00BF1F
:10C6A0000720400301900220029000200390032005
:10C6B00004900020059001A90448FEF7C7FC06B0CD
:10C6C00010BD000000380040001002400004004887
:10C6D000F0B585B004460D4616461F46002004906E
:10C6E0000390029001200190002000900721090290
:10C6F000E068884201D8012F00D900BF00BF5C204C
:10C70000005D012802D1022005B0F0BD01215C20AE
:10C71000015500BFFEF7A2FD02905D20005D049070
:10C7200060680390049801280DD0FF21053103981B
:10C73000884205D1A068002802D10498042802D0BC
:10C74000022000901FE1002D03D0002E01D0002F09
:10C7500002D10120009016E15D20005D042802D086
:10C7600005215D20015500202066266446200753E0
:10C7700044200753A563E787A7870020E06420656E
:10C7800007210902E068884203D84620005B01289F
:10C7900007D920684068012109038843216848605F
:10C7A00006E02068406801210903084321684860C9
:10C7B0002068006840210840402804D020680068B4
:10C7C00008432168086007210902E06888424ED9C1
:10C7D0006068002802D0E08F012806D128882168EF
:10C7E000C860AD1CE08F401EE08738E0019800284B
:10C7F00011D0E08F00280ED0206880680221084008
:10C80000022808D128882168C860AD1CE08F401E2E
:10C81000E087002001904620005B002811D02068AE
:10C820008068C007C00F00280BD02068C068308027
:10C83000B61C4620005B401E81B2462001530120F9
:10C8400001900A98401C002809D0FEF707FD0299C4
:10C85000411A0A98814202D30320009093E0E08FAE
:10C860000028C3D14620005B0028BFD17CE060686F
:10C87000002802D0E08F012811D1E08F012807D9CC
:10C8800028882168C860AD1CE08F801EE08706E024
:10C890002878216808736D1CE08F401EE0875CE0FB
:10C8A000019800281CD0E08F002819D020688068EB
:10C8B00002210840022813D1E08F012807D92888D7
:10C8C0002168C860AD1CE08F801EE08706E02878F4
:10C8D000216808736D1CE08F401EE08700200190E6
:10C8E0004620005B00282AD020688068C007C00F5F
:10C8F000002824D04620005B012814D92068C06895
:10C900003080B61C4620005B801E81B24620015359
:10C91000005B012811D82068406801210903084301
:10C920002168486009E02068007B3070761C462052
:10C93000005B401E81B246200153012001900A98FD
:10C94000401C002809D0FEF789FC0299411A0A9878
:10C95000814202D30320009015E0E08F00289FD190
:10C960004620005B00289BD12046029A0A9902F0DB
:10C970005BFB002801D020202066206E002801D01B
:10C980000120009000BF01215D20015500BF002162
:10C990005C20015500BF0098B6E60000042806D1CF
:10C9A0000649096904221143044A116105E003495B
:10C9B000096904229143014A1161704700E000E0D7
:10C9C00070B504462546681E0949884201D90120F0
:10C9D0000CE0681E074948610321081F01F046FF6B
:10C9E00000200449886107200861002070BD000014
:10C9F000FFFFFF0000E000E07047704710B50446FD
:10CA0000002C01D1012010BD3D20005D002805D182
:10CA100000213C200155204600F00CF802213D2069
:10CA20000155211D206803F0F9F801213D20015531
:10CA30000020E8E708B5124A016891420DD100BF15
:10CA40001049C969102211430E4AD1611146C969C2
:10CA500010221140009100BF11E00B4A0168914281
:10CA60000DD100BF0749C96920221143054AD16190
:10CA70001146C96920221140009100BF00BF08BDC6
:10CA800000100040001002400014004001460868F9
:10CA9000C068012210430A68D0600868006801225B
:10CAA00010430A68106000207047000001460868C3
:10CAB000C068400840000A68D06000BF0868006A8B
:10CAC000094A104000280BD10868006A92101040F3
:10CAD000002805D108680068400840000A68106016
:10CAE00000BF00207047000011110000704710B512
:10CAF00004462068006902210840400800281CD034
:10CB00002068C06808404008002816D0481F2168E7
:10CB1000086101202077206880698007800F002845
:10CB200003D02046FFF7E2FF05E0204600F0C3F8FF
:10CB3000204600F0C1F80020207720680069042119
:10CB40000840800800281DD02068C0680840800880
:10CB5000002817D0C8432168086102202077206888
:10CB60008069032109020840002803D02046FFF70E
:10CB7000BDFF05E0204600F09EF8204600F09CF83E
:10CB8000002020772068006908210840C00800289C
:10CB90001CD02068C0680840C008002816D0C843D0
:10CBA00021680861042020772068C0698007800F11
:10CBB000002803D02046FFF799FF05E0204600F04B
:10CBC0007AF8204600F078F8002020772068006985
:10CBD00010210840000900281DD02068C0680840C6
:10CBE0000009002817D0C843216808610820207771
:10CBF0002068C069032109020840002803D02046AC
:10CC0000FFF774FF05E0204600F055F8204600F0DD
:10CC100053F80020207720680069C007C00F012169
:10CC20004840484000280CD02068C0680840484070
:10CC30004840002805D0C81E21680861204600F041
:10CC40003DF82068006980210840C00900280BD009
:10CC50002068C0680840C009002805D0C843216882
:10CC600008612046FFF7C8FE20680069402108409F
:10CC7000800900280BD02068C0680840800900287F
:10CC800005D0C84321680861204600F075F8206887
:10CC9000006920210840400900280BD02068C068A6
:10CCA00008404009002805D0C84321680861204693
:10CCB000FFF7A3FE10BD70477047000010B5044693
:10CCC00020492068884201D1FEF7CEFA1E4920682B
:10CCD000884209D11D480068401C1C4908601C4856
:10CCE0000068401C1A4908601A492068884227D108
:10CCF00019480078012803D018480078012808D185
:10CD00001748FDF797F91748027817491448FDF7B7
:10CD100083FF16480068002804D014480068401EAD
:10CD20001249086012480068401C11490860114807
:10CD30000068002804D00F480068401E0D490860B4
:10CD400010BD0000002C0140001000401401002024
:10CD5000E4010020001400402201002021010020F5
:10CD600024260020200100205C25002078010020DE
:10CD7000E0010020EC01002070477047F8B5044640
:10CD80002068C569206806682807000F0090009891
:10CD900000280BD120202840002807D02020304038
:10CDA000002803D0204603F096F8F8BD2068876875
:10CDB000009800287ED0F807C00F002804D1FF207B
:10CDC000213030400028F5D0E807C00F00280BD0F4
:10CDD000FF2001303040002806D001202168086281
:10CDE000E06E01210843E0660220284000280AD0B6
:10CDF000F807C00F002806D0022021680862E06E04
:10CE000004210843E0660420284000280AD0F807DF
:10CE1000C00F002806D0042021680862E06E0221BD
:10CE20000843E0660820284000280ED0202030402B
:10CE3000002803D1F807C00F002806D00820216879
:10CE40000862E06E08210843E066E06E002841D0E9
:10CE500020202840002806D020203040002802D082
:10CE6000204603F038F8E06E08210840002805D17C
:10CE70002068806840210840002826D0204602F023
:10CE8000FFFF2068806840210840002819D02068F2
:10CE90008068884321688860606E00280DD01B4838
:10CEA000616E4863606EFDF777FF002812D0606EF8
:10CEB000416B00E00FE088470CE02046FFF75DFF84
:10CEC00008E02046FFF759FF04E02046FFF755FF32
:10CED0000020E06669E780202840002807D08020F5
:10CEE0003040002803D0204603F04EF95DE7402093
:10CEF0002840002807D040203040002803D020469A
:10CF000002F0CFFF51E700BF4FE70000CBFD000864
:10CF100010B50446002C01D1012010BDA0690028E5
:10CF200000D000E000BF6920005D002805D100218D
:10CF300068200155204600F02DF824216920015574
:10CF4000206800684008400021680860204603F01F
:10CF500009F8012800D1E0E7606A002802D02046E5
:10CF600002F0ACFE206840680121C90288432168B4
:10CF700048602068806808218843216888602068AC
:10CF800000680121084321680860204602F00EFF76
:10CF9000C3E7000010B586B004463A4920688842CD
:10CFA0004BD100BF3848C0690121490408433649C4
:10CFB000C8610846C069012149040840009000BFCB
:10CFC00000BF0C200190022002900020039003205B
:10CFD00004900120059001A90920C006FEF736F84B
:10CFE0002A482B49086010204860002128488160A9
:10CFF0008021C1600021016141618161C161FDF752
:10D000006FFF002803D0912122A003F00BFA00BF8C
:10D010001E486430806AF02188431C49643188626C
:10D020000846806A9021084318496431886200BF2D
:10D0300000BF17482066446221E01A4920688842F0
:10D040001DD100BF1048C0690121890408430E4961
:10D05000C8610846C069012189040840009000BFEA
:10D0600000BF302001900220029000200390032096
:10D0700004900120059001A90B48FDF7E7FF06B0D9
:10D0800010BD000000440040001002401C0002409F
:10D09000B02B00202E2E2F5372632F757361727484
:10D0A0002E630000004800400008004810B5034609
:10D0B0006A20C05C20286AD1002901D0002A01D151
:10D0C000012010BD012424039868A04208D11869EA
:10D0D000002805D1C807C00F002801D00120F0E7C3
:10D0E00000BF6820C05C012801D10220E9E70124CB
:10D0F0006820C45400BF59655820C2525A20C252F9
:10D1000000BF24039868A0420AD11869002803D1FF
:10D11000204C5C20C45220E0FF245C20C4521CE060
:10D12000986800280AD11869002803D1FF245C20E0
:10D13000C45212E07F245C20C4520EE00124240774
:10D140009868A04209D11869002803D17F245C2087
:10D15000C45202E03F245C20C45200BF0020D866C5
:10D1600022246A20C45400BF00246820C45400BF95
:10D1700018688068012420431C68A0601868006853
:10D18000FF24213420431C682060002099E70220FE
:10D1900097E70000FF01000070B5044600252B480A
:10D1A00084424DD12A484078C007C00F002827D1BB
:10D1B0002848007A002823D00020274909684862BF
:10D1C0002448C088002806D1801E234909680861C8
:10D1D0002148FFF75BFCFEF741F81D493839C8606C
:10D1E0001C48017AC288093081540938C0881B491B
:10D1F00088421FDA1748C088401C1649C88019E0C9
:10D2000013484078C007C00F002813D0FEF726F857
:10D210000F493839C8600F48017AC28809308154F3
:10D220000938C0880D49884204DA0A48C088401C81
:10D230000849C8800122074908310448FFF736FF32
:10D240000748844201D103F0A3FD70BDD02A00201D
:10D25000340B0020FC020020502A0020FF070000B1
:10D26000402B0020FEB504460D4616461F46002002
:10D2700001906920005D20286AD1002D01D0002E88
:10D2800001D10120FEBD01210903A068884208D117
:10D290002069002805D1E807C00F002801D001202F
:10D2A000F0E700BF6820005D012801D10220E9E716
:10D2B00001216820015500BF0020E066212169207E
:10D2C0000155FDF7CBFF0190502006535220065325
:10D2D00025E05220005B401E81B25220015300978E
:10D2E000002280212046019B02F087FF002801D008
:10D2F0000320C7E701210903A06888420BD12069F8
:10D30000002808D10295029D2888C005C00D21681B
:10D310000885AD1C03E028786D1C21680885522023
:10D32000005B0028D5DC0097002240212046019BAD
:10D3300002F063FF002801D00320A3E72021692029
:10D34000015500BF00216820015500BF002099E76A
:10D35000022097E770B504460E4615466920005D29
:10D3600020284CD1002E01D0002D01D1012070BD0C
:10D3700001210903A068884208D12069002805D14D
:10D38000F007C00F002801D00120F0E700BF68209F
:10D39000005D012801D10220E9E701216820015543
:10D3A00000BFE66450200553522005530020E0667C
:10D3B0002121692001551348216E88621248216E8F
:10D3C000C8621248216E08630020216E48632368FA
:10D3D0001A4628322B46E16C206EFDF7B3FD402043
:10D3E0002168086200BF00216820015500BF206845
:10D3F000806880210843216888600020B7E7022008
:10D40000B5E7000039FE000873FE0008E3FD0008E0
:10D410007047704770B504460D4602A003F004F84B
:10D4200070BD00004F4B4F4B4F4B0D0A00000000EA
:10D43000F8B504460D462046FAF72CFF0746284665
:10D44000FAF728FF38182030009003F0F5FD064663
:10D45000002E17D00CA13046FAF7EFFE0FA1304690
:10D46000FAF7EBFE21463046FAF7E7FE294630464A
:10D47000FAF7E3FE0AA13046FAF7DFFE09A13046CB
:10D48000FAF7DBFE3046F8BD41542B434854545064
:10D4900053454E443D302C302C000000222F00001C
:10D4A000220000000D0A000002E002A002F0BCFF12
:10D4B000FBE700006572726F720D0A0070B50446DA
:10D4C0000D4616460022012109030E48FDF7BFFE56
:10D4D000032001F00DFE201201F00AFEE0B201F07F
:10D4E00007FE06E0002001F003FE28706D1C701E90
:10D4F00086B2002EF6DC012211030248FDF7A7FEDA
:10D5000070BD00000004004870B504460D46164684
:10D510000022012109031448FDF799FE062001F0BD
:10D52000E7FD012211031048FDF791FE00220121C1
:10D5300009030D48FDF78BFE022001F0D9FD2012F2
:10D5400001F0D6FDE0B201F0D3FD05E028786D1CB6
:10D5500001F0CEFD701E86B2002EF7DC0122110311
:10D560000148FDF774FE70BD000400480EB5214867
:10D57000214908600020486000211F488160C16087
:10D58000012101610421416100218161C161012109
:10D59000016200214162FF21C23181620021C1622A
:10D5A000012101634163FDF7F3F9002803D05621FF
:10D5B00012A002F037FF0520009001200003019027
:10D5C0000004029069460C48FCF7A6FD002803D031
:10D5D00060210AA002F026FF072000906946064855
:10D5E000FCF79AFD002803D0682104A002F01AFF7E
:10D5F0000EBD000000240140242600202E2E2F53B3
:10D6000072632F6164632E630000000008B500BFE1
:10D610000A484069012108430849486108464069B1
:10D62000C007C00F009000BF00BF002203210A20E6
:10D63000FDF7C2FE0A20FDF7B3FE08BD0010024050
:10D6400070B58AB00120FE490870002048708870CB
:10D65000C87008710220FB4908700020487088706B
:10D66000C87008710320F84908700020487088705D
:10D67000C87008710420F54908700020487088704F
:10D68000C87008718A21F248FAF7CCFDF1A1F04880
:10D69000FAF715FEF3A1EE481430FAF710FEEC4845
:10D6A000F2A109884183F2A11C30FAF708FE11218A
:10D6B000E7482D30FAF7B6FD1121E5483E30FAF77C
:10D6C000B1FD1421E2484F30FAF7ACFD1421E048D7
:10D6D0006330FAF7A7FDDE486330E4A10A780275EB
:10D6E00049784175B821E648FAF79CFDE5A1E44880
:10D6F000FAF7E5FD0A20E2494861E5A1E0482C304F
:10D70000FAF7DDFDE348DE49C8630B22E2A1DC48FD
:10D710003030FAF7B2FDE3A1D9484030FAF7CFFD37
:10D72000FF206930D6498864B420C864DF480865A2
:10D73000DF4848657F20C0058865DEA1D0485D30A0
:10D74000FAF7BDFDDBA1CE486C30FAF7B8FDCC4846
:10D75000A030DBA109888182012160380177002196
:10D76000403041744161D7A1401FFAF7A8FDD8A10C
:10D77000C3488730FAF7A3FD0021C1488030017605
:10D78000C1613C21D548FAF74DFD02210920C006B0
:10D79000FDF754FD012800D100E00020D0490870B9
:10D7A00001210903CF48FDF749FD002801D10120DF
:10D7B00000E00020CC49087002210920C006FDF7D6
:10D7C0003DFD012801D1A9A000E0C8A005462946D9
:10D7D000C2480C30FAF773FDC048C4A10988C18162
:10D7E00001210903BF48FDF729FD012801D1BFA090
:10D7F00000E09EA005462946B8481030FAF75FFDC4
:10D80000B648BAA10988418298A109888182B7A146
:10D810000988C1829F48B14988602421B448FAF739
:10D8200001FDB448B2490861002008604860B24870
:10D83000486100208860C86108628861AF4908605B
:10D8400048600520000588604C21AD48FAF7EAFCE5
:10D850000020AB498864AB4908700122D10209203D
:10D86000C006FDF7F4FC01220221A748FDF7EFFCFA
:10D87000012291029B48FDF7EAFC01229102A24895
:10D88000FDF7E5FC0120A14908706420FDF7A7FB26
:10D89000002001F0F1FC412836D1012001F0ECFC20
:10D8A000412831D18A226A490220FFF707FEB822B7
:10D8B0007349C820FFF702FE3C228849FF209130BF
:10D8C000FFF7FCFD24228A494B20C000FFF7F6FD3C
:10D8D0004C228B4919204001FFF7F0FD0C228749AB
:10D8E0007D20C000FFF7EAFD982286498848FFF7AF
:10D8F000E5FD7F49C868FBF7E4F905462A460B4673
:10D9000084A002F091FD26E088A002F08DFD0021A8
:10D91000412001F0D5FC0121412001F0D1FC8A22F7
:10D920004B490220FFF7F0FDB8225549C820FFF708
:10D93000EBFD3C226949FF209130FFF7E5FD2422F1
:10D940006B494B20C000FFF7DFFD0C226B497D20A7
:10D95000C000FFF7D9FD00F039FE002203210220AC
:10D96000FDF72AFD0220FDF71BFD45488030407C75
:10D97000002801D170480078FCF730FB05462946A5
:10D980003F481830FAF79BFC6CA13D481D30FAF770
:10D9900096FC4CA13A487B30FAF791FC4CA13848F0
:10D9A0008730FAF78CFC08220021684801F071FBEF
:10D9B00066490868FBF785F905462A460B4664A0C8
:10D9C00002F032FD61494868FBF77BF905462A46BB
:10D9D0000B4662A002F028FD5C490868FBF771F96C
:10D9E0000546614A614BFBF781F906D27F20C005ED
:10D9F0005649086001205E490870544948685D49ED
:10DA0000FBF7B8F905D20020504948600120584979
:10DA100008703749C868FBF754F905460022564B91
:10DA2000FBF764F906D27F20C0053149C8600120A8
:10DA3000524908702C22012109035148A2E000003C
:10DA4000C8010020CD010020D2010020D901002012
:10DA5000B426002033352E3137372E37382E313962
:10DA6000380000003530353700000000310000007C
:10DA700076706E2E6D6761732E636F6D000000000F
:10DA8000402700205858585830303036363600007D
:10DA90004B5368000000504158585858585858582F
:10DAA000585858005458313233000000CDCC6C40E7
:10DAB00000004843303030303030303030300000FB
:10DAC000320000004175672032342032303230009D
:10DAD00031363A35323A353100000000F82700205F
